{
  "contractName": "Flip",
  "abi": [
    {
      "constant": true,
      "inputs": [],
      "name": "value",
      "outputs": [
        {
          "internalType": "bool",
          "name": "",
          "type": "bool"
        }
      ],
      "payable": false,
      "stateMutability": "view",
      "type": "function"
    },
    {
      "constant": false,
      "inputs": [],
      "name": "flip",
      "outputs": [],
      "payable": false,
      "stateMutability": "nonpayable",
      "type": "function"
    },
    {
      "constant": true,
      "inputs": [],
      "name": "get",
      "outputs": [
        {
          "internalType": "bool",
          "name": "",
          "type": "bool"
        }
      ],
      "payable": false,
      "stateMutability": "view",
      "type": "function"
    }
  ],
  "bytecode": "0x608060405234801561001057600080fd5b50610141806100206000396000f3fe608060405234801561001057600080fd5b50600436106100415760003560e01c80633fa4f245146100465780636d4ce63c14610068578063cde4efa91461008a575b600080fd5b61004e610094565b604051808215151515815260200191505060405180910390f35b6100706100a6565b604051808215151515815260200191505060405180910390f35b6100926100bc565b005b6000809054906101000a900460ff1681565b60008060009054906101000a900460ff16905090565b6000809054906101000a900460ff16156100ef5760008060006101000a81548160ff02191690831515021790555061010a565b60016000806101000a81548160ff0219169083151502179055505b56fea265627a7a72315820c29781c316e9a00cbdbbf6ca1ffbf877b70e4d3054d124e2e5e41b65f037c2ea64736f6c63430005100032",
  "source": "pragma solidity ^0.5.0;\n\ncontract Flip {\n    bool public value;\n\n    function flip() public {\n        if (value) {\n            value = false;\n        } else {\n            value = true;\n        }\n    }\n\n    function get() public view returns (bool) {\n        return value;\n    }\n}\n",
  "sourcePath": "/Users/jasper/Code/smart-contract/contracts/Flip.sol",
  "compiler": {
    "name": "solc",
    "version": "0.5.16+commit.9c3226ce.Emscripten.clang"
  },
  "schemaVersion": "3.4.3",
  "updatedAt": "2021-10-12T17:10:05.931Z",
  "networkType": "ethereum",
  "devdoc": {
    "methods": {}
  },
  "userdoc": {
    "methods": {}
  }
}